:02000000642971
:10000800FE00030EFF0003138312DC308E000B305A
:100018008F000C18B8200B1816207F0E8300FE0ED8
:100028007E0E09000B1C11280B1071184D20711A37
:100038002528F1183728F1192E2871184328711925
:100048004328861D48248619E324061E4A24061AD6
:1000580049253F28861D482486199223061E4A24CE
:10006800061AE2233F28861D48248619C020061E4A
:100078004A24061A1B23861E4E24861A9B207118B2
:100088005028F118622871196F28F1198128711AFE
:100098008E28861F85160800061F4C24061B5C2028
:1000A8000B107214F2107211F2117212F21211285E
:1000B800701D0800F1147110F0010800061F4C248F
:1000C800061B69200B1073141128701D0800711588
:1000D800F110F0010800061F4C24061B7B200B10B2
:1000E8007214F2107211F2117212F2121128701DAC
:1000F8000800F1157111F0010800061F4C24061BB9
:1001080088200B1073141128701D08007116F11146
:10011800F0010800061F4C24061B95200B107314D1
:100128001128701D080071147112F0010800F01DEB
:1001380008007218A428F218A9287219B3281128DF
:100148007210F2140B10F0010800F21072150B1067
:10015800F119B020F00108007214F21008007211B1
:1001680072140B10F00108000C1003138312DC301A
:100178008E000B308F00C0280B10F11CC928721C90
:10018800DE28701C0800F001CB28711C0800F50A55
:100198000B1075080A3C031D0800F501D3280B1045
:1001A800F60A7608063C031D0800F501F601F11869
:1001B8000800DE280B10F11CE728F21C6A2B701CC3
:1001C8000800F001E928711C0800F70A77080A3CC2
:1001D800031D0800F701F601F501F228F80A78086E
:1001E800063C031D0800F801F701F501F601F118B6
:0401F80008006A2B66
:1002A0008A010A140F3982073F3406345B344F3415
:1002B00066346D347D3407347F34673477347C346E
:1002C00039345E3479347134031783168801890117
:1002D00003138316850187010810881008118811FF
:1002E00008128812890103138316861506168616CE
:1002F00006178617031383122030850086018701B5
:10030000880109140130A000A101A201A301A401E8
:10031000A501A601A701A9010130A80003138316B6
:10032000951515169516151795170313831696151B
:100330001616961616179617031383128B170B179C
:100340008B150B10031383160C148C1003138312DC
:100350000C10031383129016101290101014031334
:100360008312121392161212921112159210121079
:1003700003138312DC308E000B308F0003138316BF
:100380000F178F120F120F1403138316811381128C
:1003900081110115811401140130FB00FD00F401ED
:1003A000F501F601F701F801F901FA01FC0101304C
:1003B000F100F300F200F00103138312C830910042
:1003C00003138312FD30810009189825A7257118A1
:1003D000F129F1180A2A71191D2AF119302A711A06
:1003E000432A851AF629F4290130F729213085009E
:1003F000572286110612161296110B177318712ABE
:10040000F3188C2A7319A72AF319C22A731ADD2A42
:10041000F31AF82A22308500861506169615161648
:100420000B137318712AF3188C2A7319A72AF3195E
:10043000C22A731ADD2AF31AF82A2430850086119D
:100440000612161296110B177318712AF3188C2ABC
:100450007319A72AF319C22A731ADD2AF31AF82A84
:100460002830850086150616961516160B13731878
:10047000712AF3188C2A7319A72AF319C22A731A3E
:10048000DD2AF31AF82A303085000516861506167F
:10049000961516160B137318712AF3188C2A7319F4
:1004A000A72AF319C22A731ADD2AF31AF82A750843
:1004B0002302031D080076082402031D08007708A4
:1004C0002502031D080078082602031D080079088C
:1004D0002702031D08007A082802031D0800851260
:1004E0000800081488100811881108128812711A5F
:1004F000802AF11D7C2A7E2A711D822A0230832ADD
:100500002308832A75080A128A1150210A128A11B7
:100510008700F3147310132B081088140811881126
:1005200008128812711A9B2AF11D972A992A711DA7
:100530009D2A02309E2A24089E2A76080A128A11D1
:1005400050210A128A1187007315F310132B08101B
:1005500088100815881108128812711AB62AF11D20
:10056000B22AB42A711DB82A7B08B92A2508B92AEB
:1005700077080A128A1150210A128A118700F3158E
:100580007311132B0810881008118815081288128F
:10059000711AD12AF11DCD2ACF2A711DD32A7C08C8
:1005A000D42A2608D42A78080A128A1150210A125D
:1005B0008A1187007316F311132B08108810081185
:1005C000881108168812711AEC2AF11DE82AEA2A05
:1005D000711DEE2A2008EF2A2708EF2A79080A124F
:1005E0008A1150210A128A118700F3167312132BF5
:1005F000081088100811881108128816711A072B24
:10060000F11D032B052B711D092B21080A2B28082E
:100610000A2B7A080A128A1150210A128A118700BD
:100620007314F312132B0B1D132B0B1103138312D3
:10063000FD308100E4290B10F11C0800721C342BE2
:10064000F01C0800F001F5037508FF3C031D0800CD
:100650000930F5002B2B0B10F6037608FF3C031D29
:1006600008000530F60008000B10F11C0800F21C11
:100670004C2BF01C0800F001F7037708FF3C031D2A
:1006800008000930F700442BF8037808FF3C031DED
:1006900008000530F80008000B10F11C0800721D5E
:1006A0000800F01C0800F001F9037A08003C031D63
:1006B0005C2B7908FF3C031D622B0230FA000330EB
:1006C000F90008007908FF3C031D0800FA0309300F
:1006D000F90008000B10F11C732B721D0800701C30
:1006E0000800F001752B711C0800F90A7A08023C19
:1006F000031D7D2B7908043C031D852BFA01F901AC
:10070000F801F701F501F601922B79080A3C031D67
:100710000800FA0AF90172190800F801F701F50159
:10072000F60108000B10F11D9A2B701C0800F00157
:100730007218382CA00A50242218CC2B741CB62B0B
:100740002108033C031DAF2B2008023C031DAF2BE7
:10075000FB0AFD0AC7240130A000A101F401200812
:100760000A3C031D0800A001A10A08002108033C5F
:10077000031DC52B2008013C031DC52BFB0AFD0AE8
:10078000B8240130A000A101F40120080A3C031D97
:100790000800A001A10A08002108023C031DDB2B70
:1007A0002008093C031DDB2BFB0AFD0A0130A000D9
:1007B000A101F401A20120080A3C031D0800A001C8
:1007C000A10A08000B10F11DEA2BF01C0800F00133
:1007D0007218402CA00384242218202C741C082C8E
:1007E0002108003C031D002C2008003C031D002CA8
:1007F000FB03FD03D4240130A0000330A100F40169
:100800002008FF3C031D08000930A000A1030800D8
:100810002108003C031D182C2008003C031D182C47
:10082000FB03FD03BF240030A0000330A100F4014E
:100830002008FF3C031D08000930A000A1030800A8
:100840002108003C031D302C2008003C031D302CE7
:10085000FB03FD030830A0000230A100F401A20157
:100860002008FF3C031D08000930A000A103080078
:100870000130A000A101FD0AFB0AC724B82408002A
:100880000130A000A101FD03FB03D424BF24080014
:1008900070140800F014080070150800F015080026
:1008A0007D08013C031974147D08033C031974147A
:1008B0007D08043C031974107D08053C0319741469
:1008C0007D08063C031974107D08073C0319741455
:1008D0007D08083C031974147D08093C0319741041
:1008E0007D080A3C031974147D080B3C031974102D
:1008F0007D080C3C031974147D08023C0319812403
:100900000800F401221408007D08013C0319741446
:100910007D08023C031974147D08043C0319741407
:100920007D08053C031974107D08063C03197414F6
:100930007D08073C031974107D08083C03197414E2
:100940007D08093C031974147D080A3C03197410CE
:100950007D080B3C031974147D080C3C03197410BA
:100960007D08033C0319B5240800F4012214080093
:100970007B080A3C031D0800FB01FC0A08007B08F9
:10098000FF3C031D08000930FB00FC0308007C0845
:10099000013C031D08007B08033C031D0800FC010B
:1009A0000130FB00FD0008007C08003C031D08002E
:1009B0007B08003C031D08000130FC000230FB00F6
:1009C0000C30FD0008000B10711EEC2C721C012D68
:1009D000701C0800F001EE2C711C0800A30A0B101B
:1009E00023080A3C031D0800A301F62C0B10A40ADF
:1009F0002408063C031D0800A301A401711A080085
:100A0000012D0B10711E0A2DF21C212D701C0800E7
:100A1000F0010C2D711C0800A50A25080A3C031DD5
:100A20000800A501A401A301152DA60A2608063C6D
:100A3000031D0800A601A501A301A401711A080065
:100A4000212D0B10711E2A2D721D0800701C08002C
:100A5000F0012C2D711C0800A70A2808023C031D78
:100A6000342D2708043C031D3C2DA801A701A60135
:100A7000A501A301A401080027080A3C031D0800E2
:100A8000A80AA70172190800A601A501A301A401E3
:100A900008000B10711E0800721C622DF01C08006B
:100AA000F001A3032308FF3C031D08000930A30045
:100AB000592D0B10A4032408FF3C031D080005302A
:100AC000A40008000B10711E0800F21C7A2DF01C07
:100AD0000800F001A5032508FF3C031D08000930AC
:100AE000A500722DA6032608FF3C031D0800053053
:100AF000A60008000B10711E0800721D0800F01CF3
:100B00000800F001A7032808003C031D8A2D2708D0
:100B1000FF3C031D902D0230A8000330A700080001
:100B20002708FF3C031D0800A8030930A7000800A0
:100B30008C1C08008C10A90A2908313C031D0800F0
:100B4000A901091003138312C830910008008C1CFE
:100B500008008C10A90A2908313C031D0800A901CE
:0C0B6000091403138312C8309100080030
:04400E00D420FF3E7D
:00000001FF
