:02000000642971
:10000800FE00030EFF0003138312DC308E000B305A
:100018008F000C18B5200B1816207F0E8300FE0EDB
:100028007E0E09000B1C11280B10861F8516711AED
:100038002528F1183728F1192E2871184328711925
:100048004328861D4C248619E724061E4E24061ACA
:100058004D253F28861D4C2486199623061E4E24BE
:10006800061AE6233F28861D4C248619BD20061E45
:100078004E24061A1F23861E5224861A98207118A9
:100088004D28F1185F2871196C28F1197E28711A0A
:100098008B28061F5024061B59200B107214F210CF
:1000A8007211F2117212F2121128701D0800F11467
:1000B8007110F0010800061F5024061B66200B1063
:1000C80073141128701D08007115F110F001080053
:1000D800061F5024061B78200B107214F2107211A0
:1000E800F2117212F2121128701D0800F115711127
:1000F800F0010800061F5024061B85200B107314FE
:100108001128701D08007116F111F0010800061F72
:100118005024061B92200B1073141128701D080020
:1001280071147112F0010800F01D08007218A1285E
:10013800F218A6287219B02811287210F2140B10A0
:10014800F0010800F21072150B10F119AD20F00142
:1001580008007214F2100800721172140B10F001EA
:1001680008000C1003138312DC308E000B308F0054
:10017800BD280B10F11CC628721CDB28701C080057
:10018800F001C828711C0800F50A0B1075080A3C14
:10019800031D0800F501D0280B10F60A7608063C66
:1001A800031D0800F501F601F1180800DB280B1003
:1001B800F11CE428F21C6E2B701C0800F001E628E4
:1001C800711C0800F70A77080A3C031D0800F701AC
:1001D800F218F028F601F501F128F80A7808063C2B
:1001E800031D0800F801F701F218FE28F501F601D1
:0601F800F11808006E2B57
:1002A0008A010A140F3982073F3406345B344F3415
:1002B00066346D347D3407347F34673477347C346E
:1002C00039345E3479347134031783168801890117
:1002D00003138316850187010810881008118811FF
:1002E00008128812890103138316861506168616CE
:1002F00006178617031383122030850086018701B5
:10030000880109140130A000A101A201A301A401E8
:10031000A501A601A9010130A8000230A70003131E
:10032000831695151516951615179517031383162D
:1003300096151616961616179613031383128B1717
:100340000B178B150B10031383160C148C1003134F
:1003500083120C108C10031383129016101290103D
:100360001014031383121213921612129211121503
:100370009210121003138312DC308E000B308F00AA
:10038000031383160F178F120F120F140313831604
:100390008113811281110115811401140130FB00B8
:1003A000FD00F401F501F601F701F801F901FA0188
:1003B000FC010130F100F300F200F001031383129D
:1003C000C830910003138312FD30810009189C2569
:1003D000AB257118F329F1180E2A7119212AF11988
:1003E000342A711A472A861F8516851AFA29F82990
:1003F0000130FB29213085005B228611061216127E
:1004000096110B177318752AF318902A7319AB2AD3
:10041000F319C62A731AE12AF31AFC2A223085003E
:1004200086150616961516160B137318752AF318EB
:10043000902A7319AB2AF319C62A731AE12AF31A00
:10044000FC2A2430850086110612161296110B170D
:100450007318752AF318902A7319AB2AF319C62A50
:10046000731AE12AF31AFC2A28308500861506162D
:10047000961516160B137318752AF318902A73190C
:10048000AB2AF319C62A731AE12AF31AFC2A303070
:100490008500051686150616961516160B13731885
:1004A000752AF318902A7319AB2AF319C62A731AFE
:1004B000E12AF31AFC2A75082302031D08007608B6
:1004C0002402031D080077082502031D0800780890
:1004D0002602031D080079082702031D08007A0878
:1004E0002802031D0800851208000814881008114E
:1004F000881108128812711A842AF11D802A822A12
:10050000711D862A0230872A2308872A75080A1255
:100510008A1150210A128A118700F3147310172BC5
:10052000081088140811881108128812711A9F2A5D
:10053000F11D9B2A9D2A711DA12A0230A22A24089E
:10054000A22A76080A128A1150210A128A118700FB
:100550007315F310172B081088100815881108124E
:100560008812711ABA2AF11DB62AB82A711DBC2A3E
:100570007B08BD2A2508BD2A77080A128A11502156
:100580000A128A118700F3157311172B08108810AF
:100590000811881508128812711AD52AF11DD12A5E
:1005A000D32A711DD72A7C08D82A2608D82A780889
:1005B0000A128A1150210A128A1187007316F31148
:1005C000172B081088100811881108168812711A44
:1005D000F02AF11DEC2AEE2A711DF22A2008F32AD6
:1005E0002708F32A79080A128A1150210A128A115F
:1005F0008700F3167312172B081088100811881142
:1006000008128816711A0B2BF11D072B092B711D6F
:100610000D2B21080E2B28080E2B7A080A128A119E
:1006200050210A128A1187007314F312172B0B1D25
:10063000172B0B1103138312FD308100E6290B10D9
:10064000F11C0800721C382BF01C0800F001F503A7
:100650007508FF3C031D08000930F5002F2B0B1017
:10066000F6037608FF3C031D08000530F60008007D
:100670000B10F11C0800F21C502BF01C0800F001BC
:10068000F7037708FF3C031D08000930F700482BEB
:10069000F8037808FF3C031D08000530F800080047
:1006A0000B10F11C0800721D0800F01C0800F0017E
:1006B000F9037A08003C031D602B7908FF3C031DF9
:1006C000662B0230FA000330F90008007908FF3C7D
:1006D000031D0800FA030930F90008000B10F11C93
:1006E000772B721D0800701C0800F001792B711C1B
:1006F0000800F90A7A08023C031D812B7908043CA2
:10070000031D892BFA01F901F801F701F501F60142
:10071000962B79080A3C031D0800FA0AF9017219A0
:100720000800F801F701F501F60108000B10F11DB2
:100730009E2B701C0800F00172183C2CA00A542457
:100740002218D02B741CBA2B2108033C031DB32B99
:100750002008023C031DB32BFB0AFD0ACB24013009
:10076000A000A101F40120080A3C031D0800A0011B
:10077000A10A08002108033C031DC92B2008013CE5
:10078000031DC92BFB0AFD0ABC240130A000A101F6
:10079000F40120080A3C031D0800A001A10A08007A
:1007A0002108023C031DDF2B2008093C031DDF2B21
:1007B000FB0AFD0A0130A000A101F401A2012008FA
:1007C0000A3C031D0800A001A10A08000B10F11D3E
:1007D000EE2BF01C0800F0017218442CA0038824B2
:1007E0002218242C741C0C2C2108003C031D042C02
:1007F0002008003C031D042CFB03FD03D82401301A
:10080000A0000330A100F4012008FF3C031D0800F4
:100810000930A000A10308002108003C031D1C2C86
:100820002008003C031D1C2CFB03FD03C3240030E7
:10083000A0000330A100F4012008FF3C031D0800C4
:100840000930A000A10308002108003C031D342C3E
:100850002008003C031D342CFB03FD030830A000DE
:100860000230A100F401A2012008FF3C031D080092
:100870000930A000A10308000130A000A101FD0A79
:10088000FB0ACB24BC2408000130A000A101FD0319
:10089000FB03D824C324080070140800F0140800D7
:1008A00070150800F01508007D08013C0319741448
:1008B0007D08033C031974147D08043C031974106B
:1008C0007D08053C031974147D08063C0319741057
:1008D0007D08073C031974147D08083C031974143F
:1008E0007D08093C031974107D080A3C031974142F
:1008F0007D080B3C031974107D080C3C031974141B
:100900007D08023C031985240800F4012214080024
:100910007D08013C031974147D08023C031974140A
:100920007D08043C031974147D08053C03197410F8
:100930007D08063C031974147D08073C03197410E4
:100940007D08083C031974147D08093C03197414CC
:100950007D080A3C031974107D080B3C03197414BC
:100960007D080C3C031974107D08033C0319B9245D
:100970000800F401221408007B080A3C031D08004B
:10098000FB01FC0A08007B08FF3C031D080009303E
:10099000FB00FC0308007C08013C031D08007B08E9
:1009A000033C031D0800FC010130FB00FD000800B2
:1009B0007C08003C031D08007B08003C031D080068
:1009C0000130FC000230FB000C30FD0008000B1071
:1009D000711EF02C721C052D701C0800F001F22C09
:1009E000711C0800A30A0B1023080A3C031D080011
:1009F000A301FA2C0B10A40A2408063C031D0800CE
:100A0000A301A401711A0800052D0B10711E0E2DF3
:100A1000F21C252D701C0800F001102D711C08001F
:100A2000A50A25080A3C031D0800A501A401A3018D
:100A3000192DA60A2608063C031D0800A601A501DB
:100A4000A301A401711A0800252D0B10711E2E2D73
:100A5000721D0800701C0800F001302D711C080088
:100A6000A70A2808023C031D382D2708043C031D53
:100A7000402DA801A701A601A501A301A40108001A
:100A800027080A3C031D0800A80AA70172190800DC
:100A9000A601A501A301A40108000B10711E080006
:100AA000721C662DF01C0800F001A3032308FF3C14
:100AB000031D08000930A3005D2D0B10A4032408BA
:100AC000FF3C031D08000530A40008000B10711E38
:100AD0000800F21C7E2DF01C0800F001A50325087B
:100AE000FF3C031D08000930A500762DA60326084B
:100AF000FF3C031D08000530A60008000B10711E06
:100B00000800721D0800F01C0800F001A703280867
:100B1000003C031D8E2D2708FF3C031D942D023041
:100B2000A8000330A70008002708FF3C031D0800A9
:100B3000A8030930A70008008C1C08008C10A90A23
:100B40002908313C031D0800A90109100313831271
:100B5000C830910008008C1C08008C10A90A2908D4
:100B6000313C031D0800A901091403138312C83086
:040B700091000800E8
:04400E00D420FF3E7D
:00000001FF
