:020000001429C1
:10000800FD00030EFE000C180F200A287E0E830048
:10001800FD0E7D0E09000C1003138312DC308E00D8
:100028000B308F001728F90A79080A3C031D0800CD
:10003800F9011E28FA0A7A08063C031D0800F9018E
:10004800FA012628FB0A7B080A3C031D0800FB016D
:10005800FA01F9012F28FC0A7C08063C031D080058
:0A006800FC01FB01F901FA01080098
:100200008A010A140F3982073F3406345B344F34B5
:1002100066346D347D3407347F34673477347C340E
:1002200039345E34793471340317831688018901B7
:10023000031383168501870108108810081188119F
:100240008901031383168615061686160617861768
:100250000313831285018601870188018901031335
:1002600083169515151695161517951703138316EE
:1002700096151616961616179617031383128B17D4
:100280000B17031383160C14031383120C100313A0
:100290008312901610129010101403138312DC3086
:1002A0008E000B308F00031383160F178F120F125F
:1002B0000F14031383168113811281110115811408
:1002C0000114F401F801F901FA01FB01FC01031327
:1002D0008312F630810077187329F718812977196E
:1002E0008F29F7199D290814881008118811790899
:1002F0000A128A1100210A128A118700F714771056
:10030000AB2908108814081188117A080A128A117A
:1003100000210A128A1187007715F710AB290810FF
:100320008810081588117B080A128A1100210A1208
:100330008A118700F7157711AB290810881008116A
:1003400088157C080A128A1100210A128A11870076
:100350007714F711AB290B1DAB290B110313831273
:06036000F63081006B295C
:04400E00D420FF3F7C
:00000001FF
