:020000002829AD
:10000800FE00030EFF0003138312DC308E000B305A
:100018008F000C185F200B1816207F0E8300FE0E31
:100028007E0E09000B1C1128861E3A207118202804
:10003800F1182C2871193328061FF114061F7110A6
:100048000B107214F2107211F2117212F2121128BE
:10005800061F7115061FF1100B1073141128061FC7
:100068007114061F71110B10731411287218472888
:10007800F2184B2872194F28F2195328721A572868
:10008800F21A5B2811287210F2140B100800F210F3
:1000980072150B1008007211F2150B100800F211FE
:1000A80072160B1008007212F2160B100800F212EA
:1000B80072140B1008000C1003138312DC308E002E
:1000C8000B308F006728711C0800F50A75080A3C78
:1000D800031D0800F501031383127228F60A760837
:1000E800063C031D0800F501F6017A28F70A77088F
:1000F8000A3C031D0800F701F601F5018328F80AF8
:100108007808063C031D0800F801F701F501F6011F
:100118008D28F90A7A08023C031D95287908043CC1
:10012800031D9D28FA01F901F801F701F501F6010F
:10013800A82879080A3C031D0800FA0AF901F80101
:0A014800F701F501F60108000800B8
:100200008A010A140F3982073F3406345B344F34B5
:1002100066346D347D3407347F34673477347C340E
:1002200039345E34793471348A010A140F39820703
:10023000BF348634DB34CF34E634ED34FD348734D8
:10024000FF34E734F734FC34B934DE34F934F134B4
:10025000031783168801890103138316850187011B
:1002600008108810081188110812881289010313D8
:100270008316861506168616061703138312850144
:1002800086018701880189010313831695151516C8
:100290009516151703138316961116129616161730
:1002A000031383128B170B178B150B100313831675
:1002B0000C14031383120C100313831290161012E4
:1002C0009010101403138312DC308E000B308F005B
:1002D000031383160F178F120F120F1403138316B5
:1002E0008113811281110115811401140130FB0069
:1002F000F401F501F601F701F801F901FA017114B1
:10030000F0017314F20103138312CF3081007118CE
:100310008D29F1189A297119A7290B177318B62975
:10032000F318D7297319EB29F319FF29731A132A24
:10033000F31A272A0B137318B629F318D729731940
:10034000EB29F319FF29731A132AF31A272A0B171B
:10035000881208137318B629F318D7297319EB29D3
:10036000F319FF29731A132AF31A272A081488107D
:100370000811881108128812711DC7297B080A12FA
:100380008A1100210A128A1187008700F314731062
:100390003B2AF11CCD297218432275080A128A11D2
:1003A00000210A128A118700F31473103B2A0810E7
:1003B00088140811881108128812F11CE129F2181A
:1003C0004C2276080A128A1100210A128A1187002B
:1003D0007315F3103B2A08108810081588110812AD
:1003E0008812F11CF5297219552277080A128A1110
:1003F00000210A128A118700F31573113B2A081095
:1004000088100811881508128812F11C092AF2199F
:100410005E2278080A128A1100210A128A118700C6
:100420007316F3113B2A081088100811881108165A
:100430008812F11C1D2A721A672279080A128A1181
:1004400000210A128A118700F31673123B2A081042
:1004500088100811881108128816F11C312AF21A26
:1004600070227A080A128A1100210A128A11870062
:100470007314F3123B2A0B1D3B2A0B110313831237
:10048000CF3081008729861D152386197922061E03
:100490001723061A7F220800861D15238619852238
:1004A000061E1723061A8B220800861D152386199F
:1004B0009122061E1723061A97220800861D15236F
:1004C00086199D22061E1723061AA3220800861DE0
:1004D00015238619A922061E1723061AAF22080023
:1004E000861D15238619B522061E1723061ABB2260
:1004F0000800701C0800F50AC122F0010800F01C79
:100500000800F503C722F0010800701C0800F60A75
:10051000CF22F0010800F01C0800F603D522F001FC
:100520000800701C0800F70ADD22F0010800F01C2A
:100530000800F703E322F0010800701C0800F80A25
:10054000EB22F0010800F01C0800F803F122F00192
:100550000800701C0800F90AF922F0010800F01CDC
:100560000800F903FF22F0010800701C0800FA0AD5
:100570000723F0010800F01C0800FA030D23F00126
:10058000080075080A3C031D0800F50108007508FD
:100590000F390F3C031D08000930F50008007608EC
:1005A000063C031D0800F601080076080F390F3CD1
:1005B000031D08000530F600080077080A3C031DFB
:1005C0000800F701080077080F390F3C031D0800E9
:1005D0000930F70008007808063C031D0800F80100
:1005E000080078080F390F3C031D08000530F8009B
:1005F000080079080A3C031D0800F9010800790881
:100600000F390F3C031D08000930F90008007A0873
:10061000033C031D0800FA0108007A080F390F3C5B
:10062000031D08000230FA00080070140800F014DE
:020630000800C0
:04400E00D420FF3F7C
:00000001FF
